:020000040800F2
:1000000010040020C9000008ED0900089D0900083F
:1000100000000000000000000000000000000000E0
:10002000000000000000000000000000F1090008CE
:100030000000000000000000EF090008F3090008BC
:10004000DB00000800000000DB000008DB00000807
:10005000DB000008DB000008DB000008DB00000814
:1000600000000000DB000008DB000008DB000008E7
:10007000DB000008DB000008DB00000800000000D7
:10008000DB000008DB00000800000000DB000008C7
:10009000DB000008DB000008DB000008DB000008D4
:1000A000DB000008DB000008DB000008DB000008C4
:1000B000DB0000080348854600F08EF80048004742
:1000C000E10A000810040020044880470448004763
:1000D000FEE7FEE7FEE7FEE7FEE7FEE74B0A000865
:1000E000B500000830B50B4601460020202201244F
:1000F00009E00D46D5409D4205D31D469540491B5C
:100100002546954040191546521E002DF1DC30BDA4
:10011000F0B51FB40646002082B005464024019188
:1001200000901BE0019922460F46304600F020F86F
:10013000049A059B801A994110D31046194622460D
:1001400000F039F8361A8F4101972246012000212C
:10015000009F00F030F838184D4100902046641E92
:100160000028DFDC019B00982946324607B0F0BD2D
:1001700010B5202A04DB0846203AD040002110BDEB
:100180000B46D340D0402024A21A91400843194680
:1001900010BDD2B201E00270401C491EFBD2704774
:1001A0000022F6E710B513460A4604461946FFF743
:1001B000F0FF204610BD10B5202A04DB0146203A8E
:1001C0009140002010BD914020239C1A0346E3403B
:1001D0001943904010BD0000064C0125064E05E075
:1001E000E36807CC2B430C3C98471034B442F7D358
:1001F000FFF764FF1C0B00083C0B000870B50446B9
:1002000000F0D4F80546601C02D004480078241899
:1002100000F0CCF8401BA042FAD370BD00000020D3
:10022000FCB500230124A1E027462A469F403A401E
:1002300073D04D68012D05D0022D03D0112D01D0B2
:10024000122D16D185680326AC465D00AE46AE4041
:100250006546B543AC46CE687546AE4065462E430E
:10026000866046680D79BE43ED06ED0F9D4035432F
:100270004560C6685F000325BD40AE46AE433546C7
:100280008E68BE402E43C6604E68022E01D0122EEC
:1002900014D1DE08B60036180196366A5D07B446FA
:1002A000EE0E0F25B54000966646AE43B4460D6986
:1002B000009EB54066462E43019D2E620668754637
:1002C000AE430D79AD07AD0FBD40354305604D68B8
:1002D000ED004AD5284DAE692643AE61AD699E0852
:1002E000ED07ED0F0095254DB6007519AC46AD68CC
:1002F0009E07360F0F27B740BD430927FF06B842B8
:1003000001D1002710E01E4FB84201D101270BE0B8
:100310001C4FB84202D1022706E026E01A4FB8422D
:1003200001D1032700E00527B7402F436546AF60A2
:10033000164E35684F689543FF0300D51543356069
:1003400075684F689543BF0300D515437560B56860
:100350004F689543FF0200D51543B560F5684F68B7
:100360009543BF0200D51543F5605B1C0A6815462E
:10037000DA4000D058E7FCBD001002400000014008
:100380000004004800080048000C00480004014038
:10039000426913460B401B0491430B438361704732
:1003A000002A01D0816170478162704701488068EE
:1003B0007047000000000020024881680278891818
:1003C000816070470000002010B5064801681022C7
:1003D00011430160002000F007F800F027F800202A
:1003E00010BD00000020024070B504460D4D7D2078
:1003F0002978C000FFF776FE01460B480068FFF73A
:1004000071FE00F0B3FA002809D1042C07D20022B3
:100410002146401E00F01EF800206C6070BD0120D7
:1004200070BD0000000000200C00002008B5084846
:100430008169012211438161816911400091C26982
:1004400001040A43C261C0690840009008BD000071
:100450000010024010B500F011FB10BDF8B50F46BA
:10046000060059D03A4D2868C007C00FB84209D2DB
:10047000286840084000384328602868C007C00F3B
:10048000B84249D13068334C81070CD5400704D5B8
:10049000606807210902084360606068F0218843B2
:1004A000B168084360603078C00726D070680128C2
:1004B0000ED0216802280ED0890700292CDA616845
:1004C0008908890001436160FFF770FF00900DE02B
:1004D00021688903F1E78901EFE7FFF767FF0099DA
:1004E000411A1D48814201D90320F8BD60680C21E2
:1004F0000840716889008842EFD12868C007C00FA2
:10050000B8420BD928684008400038432860286862
:10051000C007C00FB84201D00120F8BD30784007B5
:1005200006D56068072109028843F16808436060C6
:1005300000F018F86168094A0906090F515CC840C3
:10054000074908600020FFF74FFF0020F8BD0000BA
:100550000020024000100240881300000C0B00082D
:100560000C00002010B514A30FCB88B06C460FC44C
:1005700015A30FCB0FC4184A51680C200B4603403B
:100580001648042B16D0082B14D18B021B0F6C4677
:10059000E45CD26A04AB1207120F9A5CC90305D55A
:1005A00000231946FFF7B4FD214601E020460C491F
:1005B00000F04CFA08B010BD020304050607080954
:1005C0000A0B0C0D0E0F101001020304050607089C
:1005D000090A0B0C0D0E0F100010024000127A00D9
:1005E00000093D00FEB5040070D02078DC4DC00746
:1005F0004AD068680007800F012807D068680007A4
:10060000800F022809D16868C00306D528688003D6
:100610003AD560680028E7D036E06168012914D037
:1006200001208004002901D0052914D02A68012165
:1006300009048A432A602968814329606068002888
:1006400016D0FFF7B3FE06460EE028680121090424
:1006500008432860F2E7296801432960F5E7FFF7BE
:10066000A5FE801B64286ED828688003F7D50BE0B0
:10067000FFF79CFE064604E0FFF798FE801B642807
:10068000F1D828688003F7D4207801268007002855
:100690003CDA68680007800F07D068680007800FA1
:1006A000022809D16868C00306D42868800716D5D7
:1006B000E06801280AD112E0E0680028286816D016
:1006C00030432860FFF772FE074605E043E1FFF77D
:1006D0006DFEC01B0228C6D828688007F7D5286899
:1006E000F82188432169C900084328600EE04008CA
:1006F00040002860FFF75AFE074604E0FFF756FE69
:10070000C01B0228AFD828688007F7D420780007DC
:1007100022D5E0690028686A0ED030436862FFF78E
:1007200045FE074604E0FFF741FEC01B02289AD8A9
:10073000686A8007F7D50FE0400840006862FFF75D
:1007400035FE074605E09DE0FFF730FEC01B02289E
:1007500089D8686A8007F7D42078042740070028E2
:1007600060DA00200190E869C00008D4E969B806A1
:100770000143E961E9690140012000910190794854
:100780000168C90511D40168821511430160FFF7A2
:100790000DFE009005E0FFF709FE0099401A64285D
:1007A00070D870480068C005F5D5A06801280AD047
:1007B000002801D0052810D0286A4008400028628F
:1007C000286AB84301E0286A30432862A0680028FC
:1007D00012D0FFF7EBFD00900AE0286A3843286248
:1007E000F1E7FFF7E3FD0099411A5F48814249D8DC
:1007F000286A8007F5D50DE0FFF7D8FD009006E0E8
:10080000FFF7D4FD0099411A574881423AD8286A27
:100810008007F5D40198002804D0E9690120000779
:100820008143E9612078C00635D5606901280CD084
:10083000401D686B23D038436863686B40084000F4
:100840006863FFF7B3FD064622E0686B38436863D0
:10085000686B30436863FFF7A9FD064604E0FFF7C5
:10086000A5FD801B02285BD8686B8007F7D5686BF5
:10087000F8218843A169C900084368630BE0B843C5
:100880006863F4E74CE0FFF791FD801B022847D82E
:10089000686B8007F7D4206A00285ED06968090772
:1008A000890F022942D0012636060228286805D081
:1008B000B0432860FFF77AFD044633E0B043286078
:1008C000FFF774FD074604E0FFF770FDC01B022828
:1008D00026D828688001F7D4E86AE16A0009000197
:1008E0000843E862616AA06A084369683D2212040D
:1008F000914308436860286830432860FFF756FD3D
:10090000044604E0FFF752FD001B022808D82868BF
:100910008001F7D521E0FFF749FD001B022801D92E
:100920000320FEBD28688001F5D416E00128F8D028
:100930006868E96A01221204636A02409A420AD195
:100940000907E26A090F914205D10F218904084085
:10095000A16A884201D00120FEBD0020FEBD00003A
:10096000001002400070004088130000094910B5D3
:10097000401E884201D9012010BD074C606103214F
:10098000081F00F07BF80020A061072020610020F4
:1009900010BD0000FFFFFF0000E000E0FEE70000E8
:1009A00030B587B014216846FFF7FAFB0D4842695D
:1009B000012189040A43426140690B4D08408C11B2
:1009C0000590002221462846FFF7EAFC002101207D
:1009D000029103910190009469462846FFF720FC9C
:1009E00007B030BD0010024000040048FEE7704729
:1009F000704710B5FFF7E0FC10BD10B590B0302186
:100A00006846FFF7CDFB002402200F9400900D9460
:100A1000012003900E94102004900C9408946846D2
:100A2000FFF7E0FD002801D072B6FEE707200C902A
:100A30000D940E9400210F940CA8FFF70FFD0028D1
:100A400001D072B6FEE710B010BD7047F8B5040CC7
:100A50008BB2264682B25E430D0C1046370C5843CB
:100A6000360480190021794116466E43370C36044E
:100A70008019794126466E438919F8BD8307FF2204
:100A8000DB0E9A408907090E9940002808DB83088D
:100A900009489B001B18186890430843186070476A
:100AA0000007000F0838830804489B001B18D8690A
:100AB00090430843D861704700E400E000ED00E097
:100AC00002E008C8121F08C1002AFAD17047704717
:100AD000002001E001C1121F002AFBD17047000075
:100AE000FFF772FCFFF789FFFFF75AFFFF24F53489
:100AF0000125054E2D032046FFF780FB2946304691
:100B0000FFF746FCF7E70000000400480000000083
:100B10000000000001020304060708093C0B00085E
:100B20000000002010000000C00A00084C0B000864
:100B30001000002000040000D00A0008010000009E
:0C0B4000040000000000000000127A0019
:04000005080000B53A
:00000001FF
